{
  "contractName": "DecentraWorld",
  "abi": [
    {
      "inputs": [],
      "stateMutability": "nonpayable",
      "type": "constructor"
    },
    {
      "anonymous": false,
      "inputs": [
        {
          "indexed": true,
          "internalType": "address",
          "name": "owner",
          "type": "address"
        },
        {
          "indexed": true,
          "internalType": "address",
          "name": "spender",
          "type": "address"
        },
        {
          "indexed": false,
          "internalType": "uint256",
          "name": "value",
          "type": "uint256"
        }
      ],
      "name": "Approval",
      "type": "event"
    },
    {
      "anonymous": false,
      "inputs": [
        {
          "indexed": false,
          "internalType": "uint256",
          "name": "_marketingBuy",
          "type": "uint256"
        },
        {
          "indexed": false,
          "internalType": "uint256",
          "name": "_developmentBuy",
          "type": "uint256"
        },
        {
          "indexed": false,
          "internalType": "uint256",
          "name": "_daonfarmingBuy",
          "type": "uint256"
        },
        {
          "indexed": false,
          "internalType": "uint256",
          "name": "_coreteamBuy",
          "type": "uint256"
        }
      ],
      "name": "BuyFees",
      "type": "event"
    },
    {
      "anonymous": false,
      "inputs": [
        {
          "indexed": true,
          "internalType": "address",
          "name": "previousOwner",
          "type": "address"
        },
        {
          "indexed": true,
          "internalType": "address",
          "name": "newOwner",
          "type": "address"
        }
      ],
      "name": "OwnershipTransferred",
      "type": "event"
    },
    {
      "anonymous": false,
      "inputs": [
        {
          "indexed": false,
          "internalType": "uint256",
          "name": "_marketingSell",
          "type": "uint256"
        },
        {
          "indexed": false,
          "internalType": "uint256",
          "name": "_developmentSell",
          "type": "uint256"
        },
        {
          "indexed": false,
          "internalType": "uint256",
          "name": "_daonfarmingSell",
          "type": "uint256"
        },
        {
          "indexed": false,
          "internalType": "uint256",
          "name": "_coreteamSell",
          "type": "uint256"
        }
      ],
      "name": "SellFees",
      "type": "event"
    },
    {
      "anonymous": false,
      "inputs": [
        {
          "indexed": true,
          "internalType": "address",
          "name": "from",
          "type": "address"
        },
        {
          "indexed": true,
          "internalType": "address",
          "name": "to",
          "type": "address"
        },
        {
          "indexed": false,
          "internalType": "uint256",
          "name": "value",
          "type": "uint256"
        }
      ],
      "name": "Transfer",
      "type": "event"
    },
    {
      "inputs": [],
      "name": "coreteamAddress",
      "outputs": [
        {
          "internalType": "address",
          "name": "",
          "type": "address"
        }
      ],
      "stateMutability": "view",
      "type": "function",
      "constant": true
    },
    {
      "inputs": [],
      "name": "daoandfarmingAddress",
      "outputs": [
        {
          "internalType": "address",
          "name": "",
          "type": "address"
        }
      ],
      "stateMutability": "view",
      "type": "function",
      "constant": true
    },
    {
      "inputs": [],
      "name": "developmentAddress",
      "outputs": [
        {
          "internalType": "address",
          "name": "",
          "type": "address"
        }
      ],
      "stateMutability": "view",
      "type": "function",
      "constant": true
    },
    {
      "inputs": [
        {
          "internalType": "address",
          "name": "",
          "type": "address"
        }
      ],
      "name": "excludeFromFees",
      "outputs": [
        {
          "internalType": "bool",
          "name": "",
          "type": "bool"
        }
      ],
      "stateMutability": "view",
      "type": "function",
      "constant": true
    },
    {
      "inputs": [
        {
          "internalType": "address",
          "name": "",
          "type": "address"
        }
      ],
      "name": "excludeFromMaxTx",
      "outputs": [
        {
          "internalType": "bool",
          "name": "",
          "type": "bool"
        }
      ],
      "stateMutability": "view",
      "type": "function",
      "constant": true
    },
    {
      "inputs": [],
      "name": "marketingAddress",
      "outputs": [
        {
          "internalType": "address",
          "name": "",
          "type": "address"
        }
      ],
      "stateMutability": "view",
      "type": "function",
      "constant": true
    },
    {
      "inputs": [],
      "name": "owner",
      "outputs": [
        {
          "internalType": "address",
          "name": "",
          "type": "address"
        }
      ],
      "stateMutability": "view",
      "type": "function",
      "constant": true
    },
    {
      "inputs": [],
      "name": "pair",
      "outputs": [
        {
          "internalType": "address",
          "name": "",
          "type": "address"
        }
      ],
      "stateMutability": "view",
      "type": "function",
      "constant": true
    },
    {
      "inputs": [],
      "name": "renounceOwnership",
      "outputs": [],
      "stateMutability": "nonpayable",
      "type": "function"
    },
    {
      "inputs": [],
      "name": "router",
      "outputs": [
        {
          "internalType": "contract IDEXRouter",
          "name": "",
          "type": "address"
        }
      ],
      "stateMutability": "view",
      "type": "function",
      "constant": true
    },
    {
      "inputs": [
        {
          "internalType": "address",
          "name": "newOwner",
          "type": "address"
        }
      ],
      "name": "transferOwnership",
      "outputs": [],
      "stateMutability": "nonpayable",
      "type": "function"
    },
    {
      "inputs": [
        {
          "internalType": "address",
          "name": "_daoandfarmingAddress",
          "type": "address"
        }
      ],
      "name": "setdaoandfarmingAddress",
      "outputs": [],
      "stateMutability": "nonpayable",
      "type": "function"
    },
    {
      "inputs": [
        {
          "internalType": "address",
          "name": "_marketingAddress",
          "type": "address"
        }
      ],
      "name": "setmarketingAddress",
      "outputs": [],
      "stateMutability": "nonpayable",
      "type": "function"
    },
    {
      "inputs": [
        {
          "internalType": "address",
          "name": "_developmentAddress",
          "type": "address"
        }
      ],
      "name": "setdevelopmentAddress",
      "outputs": [],
      "stateMutability": "nonpayable",
      "type": "function"
    },
    {
      "inputs": [
        {
          "internalType": "address",
          "name": "_coreteamAddress",
          "type": "address"
        }
      ],
      "name": "setcoreteamAddress",
      "outputs": [],
      "stateMutability": "nonpayable",
      "type": "function"
    },
    {
      "inputs": [
        {
          "internalType": "address",
          "name": "_address",
          "type": "address"
        },
        {
          "internalType": "bool",
          "name": "_value",
          "type": "bool"
        }
      ],
      "name": "setexcludeFromFees",
      "outputs": [],
      "stateMutability": "nonpayable",
      "type": "function"
    },
    {
      "inputs": [
        {
          "internalType": "address",
          "name": "_address",
          "type": "address"
        },
        {
          "internalType": "bool",
          "name": "_value",
          "type": "bool"
        }
      ],
      "name": "setexcludeFromMaxTx",
      "outputs": [],
      "stateMutability": "nonpayable",
      "type": "function"
    },
    {
      "inputs": [
        {
          "internalType": "uint256",
          "name": "_amount",
          "type": "uint256"
        }
      ],
      "name": "getDEWOPriceInBNB",
      "outputs": [
        {
          "internalType": "uint256",
          "name": "",
          "type": "uint256"
        }
      ],
      "stateMutability": "view",
      "type": "function",
      "constant": true
    },
    {
      "inputs": [
        {
          "internalType": "uint256",
          "name": "_marketingBuy",
          "type": "uint256"
        },
        {
          "internalType": "uint256",
          "name": "_developmentBuy",
          "type": "uint256"
        },
        {
          "internalType": "uint256",
          "name": "_daonfarmingBuy",
          "type": "uint256"
        },
        {
          "internalType": "uint256",
          "name": "_coreteamBuy",
          "type": "uint256"
        }
      ],
      "name": "setBuyFees",
      "outputs": [],
      "stateMutability": "nonpayable",
      "type": "function"
    },
    {
      "inputs": [
        {
          "internalType": "uint256",
          "name": "_marketingSell",
          "type": "uint256"
        },
        {
          "internalType": "uint256",
          "name": "_developmentSell",
          "type": "uint256"
        },
        {
          "internalType": "uint256",
          "name": "_daonfarmingSell",
          "type": "uint256"
        },
        {
          "internalType": "uint256",
          "name": "_coreteamSell",
          "type": "uint256"
        }
      ],
      "name": "setSellFees",
      "outputs": [],
      "stateMutability": "nonpayable",
      "type": "function"
    },
    {
      "inputs": [],
      "name": "getBuyFees",
      "outputs": [
        {
          "internalType": "uint256",
          "name": "marketingBuy",
          "type": "uint256"
        },
        {
          "internalType": "uint256",
          "name": "developmentBuy",
          "type": "uint256"
        },
        {
          "internalType": "uint256",
          "name": "daonfarminBuy",
          "type": "uint256"
        },
        {
          "internalType": "uint256",
          "name": "coreteamBuy",
          "type": "uint256"
        }
      ],
      "stateMutability": "view",
      "type": "function",
      "constant": true
    },
    {
      "inputs": [],
      "name": "getSellFees",
      "outputs": [
        {
          "internalType": "uint256",
          "name": "marketingSell",
          "type": "uint256"
        },
        {
          "internalType": "uint256",
          "name": "developmentSell",
          "type": "uint256"
        },
        {
          "internalType": "uint256",
          "name": "daonfarminSell",
          "type": "uint256"
        },
        {
          "internalType": "uint256",
          "name": "coreteamSell",
          "type": "uint256"
        }
      ],
      "stateMutability": "view",
      "type": "function",
      "constant": true
    },
    {
      "inputs": [
        {
          "internalType": "uint256",
          "name": "_discount1",
          "type": "uint256"
        },
        {
          "internalType": "uint256",
          "name": "_amount1",
          "type": "uint256"
        },
        {
          "internalType": "uint256",
          "name": "_discount2",
          "type": "uint256"
        },
        {
          "internalType": "uint256",
          "name": "_amount2",
          "type": "uint256"
        }
      ],
      "name": "setBuyTaxTiersTokens",
      "outputs": [],
      "stateMutability": "nonpayable",
      "type": "function"
    },
    {
      "inputs": [
        {
          "internalType": "uint256",
          "name": "_discount1",
          "type": "uint256"
        },
        {
          "internalType": "uint256",
          "name": "_amount1",
          "type": "uint256"
        },
        {
          "internalType": "uint256",
          "name": "_discount2",
          "type": "uint256"
        },
        {
          "internalType": "uint256",
          "name": "_amount2",
          "type": "uint256"
        }
      ],
      "name": "setSellTaxTiersTokens",
      "outputs": [],
      "stateMutability": "nonpayable",
      "type": "function"
    },
    {
      "inputs": [],
      "name": "getbuytaxTiers",
      "outputs": [
        {
          "internalType": "uint256",
          "name": "discount1",
          "type": "uint256"
        },
        {
          "internalType": "uint256",
          "name": "amount1",
          "type": "uint256"
        },
        {
          "internalType": "uint256",
          "name": "discount2",
          "type": "uint256"
        },
        {
          "internalType": "uint256",
          "name": "amount2",
          "type": "uint256"
        }
      ],
      "stateMutability": "view",
      "type": "function",
      "constant": true
    },
    {
      "inputs": [],
      "name": "getselltaxTiers",
      "outputs": [
        {
          "internalType": "uint256",
          "name": "discount1",
          "type": "uint256"
        },
        {
          "internalType": "uint256",
          "name": "amount1",
          "type": "uint256"
        },
        {
          "internalType": "uint256",
          "name": "discount2",
          "type": "uint256"
        },
        {
          "internalType": "uint256",
          "name": "amount2",
          "type": "uint256"
        }
      ],
      "stateMutability": "view",
      "type": "function",
      "constant": true
    },
    {
      "inputs": [
        {
          "internalType": "uint256",
          "name": "_buyLimit",
          "type": "uint256"
        },
        {
          "internalType": "uint256",
          "name": "_sellLimit",
          "type": "uint256"
        },
        {
          "internalType": "uint256",
          "name": "_cooldown",
          "type": "uint256"
        }
      ],
      "name": "setmaxTx",
      "outputs": [],
      "stateMutability": "nonpayable",
      "type": "function"
    },
    {
      "inputs": [],
      "name": "getmaxTx",
      "outputs": [
        {
          "internalType": "uint256",
          "name": "buyLimit",
          "type": "uint256"
        },
        {
          "internalType": "uint256",
          "name": "sellLimit",
          "type": "uint256"
        },
        {
          "internalType": "uint256",
          "name": "cooldown",
          "type": "uint256"
        }
      ],
      "stateMutability": "view",
      "type": "function",
      "constant": true
    },
    {
      "inputs": [
        {
          "internalType": "address",
          "name": "_address",
          "type": "address"
        }
      ],
      "name": "getRecentTx",
      "outputs": [
        {
          "internalType": "uint256",
          "name": "buys",
          "type": "uint256"
        },
        {
          "internalType": "uint256",
          "name": "sells",
          "type": "uint256"
        },
        {
          "internalType": "uint256",
          "name": "lastTx",
          "type": "uint256"
        }
      ],
      "stateMutability": "view",
      "type": "function",
      "constant": true
    },
    {
      "inputs": [],
      "name": "name",
      "outputs": [
        {
          "internalType": "string",
          "name": "",
          "type": "string"
        }
      ],
      "stateMutability": "view",
      "type": "function",
      "constant": true
    },
    {
      "inputs": [],
      "name": "symbol",
      "outputs": [
        {
          "internalType": "string",
          "name": "",
          "type": "string"
        }
      ],
      "stateMutability": "view",
      "type": "function",
      "constant": true
    },
    {
      "inputs": [],
      "name": "decimals",
      "outputs": [
        {
          "internalType": "uint8",
          "name": "",
          "type": "uint8"
        }
      ],
      "stateMutability": "view",
      "type": "function",
      "constant": true
    },
    {
      "inputs": [],
      "name": "totalSupply",
      "outputs": [
        {
          "internalType": "uint256",
          "name": "",
          "type": "uint256"
        }
      ],
      "stateMutability": "view",
      "type": "function",
      "constant": true
    },
    {
      "inputs": [
        {
          "internalType": "address",
          "name": "account",
          "type": "address"
        }
      ],
      "name": "balanceOf",
      "outputs": [
        {
          "internalType": "uint256",
          "name": "",
          "type": "uint256"
        }
      ],
      "stateMutability": "view",
      "type": "function",
      "constant": true
    },
    {
      "inputs": [
        {
          "internalType": "address",
          "name": "to",
          "type": "address"
        },
        {
          "internalType": "uint256",
          "name": "amount",
          "type": "uint256"
        }
      ],
      "name": "transfer",
      "outputs": [
        {
          "internalType": "bool",
          "name": "",
          "type": "bool"
        }
      ],
      "stateMutability": "nonpayable",
      "type": "function"
    },
    {
      "inputs": [
        {
          "internalType": "address",
          "name": "owner",
          "type": "address"
        },
        {
          "internalType": "address",
          "name": "spender",
          "type": "address"
        }
      ],
      "name": "allowance",
      "outputs": [
        {
          "internalType": "uint256",
          "name": "",
          "type": "uint256"
        }
      ],
      "stateMutability": "view",
      "type": "function",
      "constant": true
    },
    {
      "inputs": [
        {
          "internalType": "address",
          "name": "spender",
          "type": "address"
        },
        {
          "internalType": "uint256",
          "name": "amount",
          "type": "uint256"
        }
      ],
      "name": "approve",
      "outputs": [
        {
          "internalType": "bool",
          "name": "",
          "type": "bool"
        }
      ],
      "stateMutability": "nonpayable",
      "type": "function"
    },
    {
      "inputs": [
        {
          "internalType": "address",
          "name": "from",
          "type": "address"
        },
        {
          "internalType": "address",
          "name": "to",
          "type": "address"
        },
        {
          "internalType": "uint256",
          "name": "amount",
          "type": "uint256"
        }
      ],
      "name": "transferFrom",
      "outputs": [
        {
          "internalType": "bool",
          "name": "",
          "type": "bool"
        }
      ],
      "stateMutability": "nonpayable",
      "type": "function"
    },
    {
      "inputs": [
        {
          "internalType": "address",
          "name": "spender",
          "type": "address"
        },
        {
          "internalType": "uint256",
          "name": "addedValue",
          "type": "uint256"
        }
      ],
      "name": "increaseAllowance",
      "outputs": [
        {
          "internalType": "bool",
          "name": "",
          "type": "bool"
        }
      ],
      "stateMutability": "nonpayable",
      "type": "function"
    },
    {
      "inputs": [
        {
          "internalType": "address",
          "name": "spender",
          "type": "address"
        },
        {
          "internalType": "uint256",
          "name": "subtractedValue",
          "type": "uint256"
        }
      ],
      "name": "decreaseAllowance",
      "outputs": [
        {
          "internalType": "bool",
          "name": "",
          "type": "bool"
        }
      ],
      "stateMutability": "nonpayable",
      "type": "function"
    }
  ],
  "bytecode": "0x60806040523480156200001157600080fd5b506200001d3362000710565b60408051808201909152600d8082526c111958d95b9d1c9855dbdc9b19609a1b60209092019182526200005391600291620008bd565b5060408051808201909152600580825264244445574f60d81b60209092019182526200008291600391620008bd565b506004805460ff19166012908117909155620000a090600a62000a01565b620000b0906305f5e10062000ac0565b6001908155600a80546001600160a01b0319908116339081178355600b8054831682178155600c8054841683178155600d8054909416831784556000928352600860208181526040808620805460ff199081168b179091556009808452828820805483168c17905589546001600160a01b039081168952858552838920805484168d17905599548a168852808452828820805483168c17905586548a168852848452828820805483168c179055955489168752858352818720805482168b179055845489168752838352818720805482168b179055935488168652848252808620805485168a1790558654881686529181528185208054841689179055945490951683529252829020805490911690921790915551600390600790620001e9906c64616f6e6661726d696e42757960981b8152600d0190565b908152604080519182900360209081018320939093556b6d61726b6574696e6742757960a01b82526007600c808401829052825193849003602c90810185206001908190556d646576656c6f706d656e7442757960901b8652600e808701859052855196879003602e90810188208390556a636f72657465616d42757960a81b8852600b8801869052865197889003602b0188208390556d19185bdb99985c9b5a5b94d95b1b60921b8852908701859052855196879003018620600490556c1b585c9ad95d1a5b99d4d95b1b609a1b8652600d8601849052845195869003602d018620600390556e19195d995b1bdc1b595b9d14d95b1b608a1b8652600f8601849052845195869003602f0186208190556b18dbdc995d19585b54d95b1b60a21b8652918501929092529151928390030190912060029055610708601255546200033f9160509062000760811b620016f517901c565b6010556001546200035f9061032062000760602090811b620016f517901c565b60115560008052600f60205260327ff4803e074bd026baaf6ed2e288c9515f68c72fb7216eebdd7cae1718a53ec3755560045460ff16620003a290600a62000a01565b620003b1906203d09062000ac0565b600f6020527ff4803e074bd026baaf6ed2e288c9515f68c72fb7216eebdd7cae1718a53ec37655600160005260647f169f97de0d9a84d840042b17d3c6b9638b3d6fd9024c9eb0c7a306a17b49f88f5560045460ff166200041490600a62000a01565b6200042390620493e062000ac0565b7f169f97de0d9a84d840042b17d3c6b9638b3d6fd9024c9eb0c7a306a17b49f8905560008052600e60205260147fe710864318d4a32f37d6ce54cb3fadbef648dd12d8dbdf53973564d56b7f881c5560045460ff166200048590600a62000a01565b62000494906203d09062000ac0565b600e6020527fe710864318d4a32f37d6ce54cb3fadbef648dd12d8dbdf53973564d56b7f881d55600160005260287fa7c5ba7114a813b50159add3a36832908dc83db71d0b9a24c2ad0f83be9582075560045460ff16620004f790600a62000a01565b6200050690620493e062000ac0565b6001600052600e60209081527fa7c5ba7114a813b50159add3a36832908dc83db71d0b9a24c2ad0f83be95820891909155601680546001600160a01b03191673d99d1c33f9fc3444f8101754abc46c52416550d19081179091556040805163c45a015560e01b8152905173094616f0bdfb0b526bd735bf66eca0ad254ca81f93839263c45a01559260048083019392829003018186803b158015620005aa57600080fd5b505afa158015620005bf573d6000803e3d6000fd5b505050506040513d601f19601f82011682018060405250810190620005e5919062000963565b6040516364e329cb60e11b81526001600160a01b038481166004830152306024830152919091169063c9c6539690604401602060405180830381600087803b1580156200063157600080fd5b505af115801562000646573d6000803e3d6000fd5b505050506040513d601f19601f820116820180604052508101906200066c919062000963565b601780546001600160a01b0319166001600160a01b03928316179055600154306000908152600660209081526040808320601654909516835293905291909120819055620006bc90829062000777565b5060015433600081815260056020908152604080832085905551938452919290917fddf252ad1be2c89b69c2b068fc378daa952ba7f163c4a11628f55a4df523b3ef910160405180910390a3505062000b35565b600080546001600160a01b038381166001600160a01b0319831681178455604051919092169283917f8be0079c531659141344cd1fd0a4f28419497f9722a3daafe3b4186f6b6457e09190a35050565b60006200076e828462000995565b90505b92915050565b6000336200078781858562000791565b5060019392505050565b6001600160a01b038316620007f95760405162461bcd60e51b8152602060048201526024808201527f45524332303a20617070726f76652066726f6d20746865207a65726f206164646044820152637265737360e01b60648201526084015b60405180910390fd5b6001600160a01b0382166200085c5760405162461bcd60e51b815260206004820152602260248201527f45524332303a20617070726f766520746f20746865207a65726f206164647265604482015261737360f01b6064820152608401620007f0565b6001600160a01b0383811660008181526006602090815260408083209487168084529482529182902085905590518481527f8c5be1e5ebec7d5bd14f71427d1e84f3dd0314c0f7b2291e5b200ac8c7c3b925910160405180910390a3505050565b828054620008cb9062000ae2565b90600052602060002090601f016020900481019282620008ef57600085556200093a565b82601f106200090a57805160ff19168380011785556200093a565b828001600101855582156200093a579182015b828111156200093a5782518255916020019190600101906200091d565b50620009489291506200094c565b5090565b5b808211156200094857600081556001016200094d565b6000602082840312156200097657600080fd5b81516001600160a01b03811681146200098e57600080fd5b9392505050565b600082620009b357634e487b7160e01b600052601260045260246000fd5b500490565b600181815b80851115620009f9578160001904821115620009dd57620009dd62000b1f565b80851615620009eb57918102915b93841c9390800290620009bd565b509250929050565b60006200076e60ff84168360008262000a1d5750600162000771565b8162000a2c5750600062000771565b816001811462000a45576002811462000a505762000a70565b600191505062000771565b60ff84111562000a645762000a6462000b1f565b50506001821b62000771565b5060208310610133831016604e8410600b841016171562000a95575081810a62000771565b62000aa18383620009b8565b806000190482111562000ab85762000ab862000b1f565b029392505050565b600081600019048311821515161562000add5762000add62000b1f565b500290565b600181811c9082168062000af757607f821691505b6020821081141562000b1957634e487b7160e01b600052602260045260246000fd5b50919050565b634e487b7160e01b600052601160045260246000fd5b612af58062000b456000396000f3fe608060405234801561001057600080fd5b50600436106102475760003560e01c80637d8e04ba1161013b578063a8aa1b31116100b8578063dd62ed3e1161007c578063dd62ed3e14610656578063df7fce5214610669578063e57f14e11461067c578063f2fde38b1461069f578063f887ea40146106b257600080fd5b8063a8aa1b3114610575578063a9059cbb14610588578063a9d26f6c1461059b578063d2fead3c14610620578063db4cf1e01461063357600080fd5b80639afbea42116100ff5780639afbea4214610516578063a3c7036e14610529578063a457c2d71461053c578063a5ece9411461054f578063a658d6571461056257600080fd5b80637d8e04ba146104575780638abccdb91461046a5780638da19562146104785780638da5cb5b146104fd57806395d89b411461050e57600080fd5b806339509351116101c95780636c5b28551161018d5780636c5b2855146103ed57806370a0823114610400578063715018a6146104295780637503be5a1461043157806379b192121461044457600080fd5b806339509351146103815780634580435b14610394578063638b1b14146103a757806367243ea8146103d2578063685fc568146103e557600080fd5b806318160ddd1161021057806318160ddd1461032157806322cfb3301461033357806323b872dd146103465780632d51ec9314610359578063313ce5671461036c57600080fd5b806220a4031461024c5780630644e757146102ac57806306fdde03146102d4578063095ea7b3146102e9578063178d9b8e1461030c575b600080fd5b61028c61025a3660046125d1565b6001600160a01b0316600090815260136020908152604080832054601483528184205460159093529220549192909190565b604080519384526020840192909252908201526060015b60405180910390f35b6102b46106c5565b6040805194855260208501939093529183015260608201526080016102a3565b6102dc610787565b6040516102a391906127ce565b6102fc6102f73660046126b8565b610819565b60405190151581526020016102a3565b61031f61031a366004612779565b610833565b005b6001545b6040519081526020016102a3565b61031f610341366004612779565b610ab4565b6102fc610354366004612644565b610baa565b61031f6103673660046125d1565b610bce565b60045460405160ff90911681526020016102a3565b6102fc61038f3660046126b8565b610c1a565b61031f6103a23660046125d1565b610c3c565b600c546103ba906001600160a01b031681565b6040516001600160a01b0390911681526020016102a3565b61031f6103e03660046125d1565b610c88565b6102b4610cd4565b61031f6103fb366004612779565b610d81565b61032561040e3660046125d1565b6001600160a01b031660009081526005602052604090205490565b61031f610ff3565b61031f61043f3660046125d1565b611029565b61031f610452366004612685565b611075565b600a546103ba906001600160a01b031681565b60105460115460125461028c565b600f6020527ff4803e074bd026baaf6ed2e288c9515f68c72fb7216eebdd7cae1718a53ec375547ff4803e074bd026baaf6ed2e288c9515f68c72fb7216eebdd7cae1718a53ec3765460016000527f169f97de0d9a84d840042b17d3c6b9638b3d6fd9024c9eb0c7a306a17b49f88f54600080516020612aa0833981519152546102b4565b6000546001600160a01b03166103ba565b6102dc6110ca565b600d546103ba906001600160a01b031681565b61031f61053736600461274d565b6110d9565b6102fc61054a3660046126b8565b6112a4565b600b546103ba906001600160a01b031681565b61031f610570366004612685565b61131f565b6017546103ba906001600160a01b031681565b6102fc6105963660046126b8565b611374565b600e6020527fe710864318d4a32f37d6ce54cb3fadbef648dd12d8dbdf53973564d56b7f881c547fe710864318d4a32f37d6ce54cb3fadbef648dd12d8dbdf53973564d56b7f881d5460016000527fa7c5ba7114a813b50159add3a36832908dc83db71d0b9a24c2ad0f83be95820754600080516020612a60833981519152546102b4565b61031f61062e366004612779565b611382565b6102fc6106413660046125d1565b60096020526000908152604090205460ff1681565b61032561066436600461260b565b611478565b610325610677366004612734565b6114a3565b6102fc61068a3660046125d1565b60086020526000908152604090205460ff1681565b61031f6106ad3660046125d1565b61165a565b6016546103ba906001600160a01b031681565b60008060008060076040516106ed906c64616f6e6661726d696e42757960981b8152600d0190565b908152604051908190036020018120546b6d61726b6574696e6742757960a01b825290600790600c01908152604051908190036020018120546d646576656c6f706d656e7442757960901b825290600790600e01908152604051908190036020018120546a636f72657465616d42757960a81b825290600790600b015b908152602001604051809103902054935093509350935090919293565b606060028054610796906129f9565b80601f01602080910402602001604051908101604052809291908181526020018280546107c2906129f9565b801561080f5780601f106107e45761010080835404028352916020019161080f565b820191906000526020600020905b8154815290600101906020018083116107f257829003601f168201915b5050505050905090565b600033610827818585611708565b60019150505b92915050565b6000546001600160a01b031633146108665760405162461bcd60e51b815260040161085d90612866565b60405180910390fd5b60068411156108b75760405162461bcd60e51b815260206004820152601a60248201527f4d61726b6574696e672066656520697320746f6f206869676821000000000000604482015260640161085d565b8360076040516108d9906b6d61726b6574696e6742757960a01b8152600c0190565b90815260405190819003602001902055600682111561093a5760405162461bcd60e51b815260206004820152601a60248201527f4c69717569646974792066656520697320746f6f206869676821000000000000604482015260640161085d565b81600760405161095d906c64616f6e6661726d696e42757960981b8152600d0190565b9081526040519081900360200190205560068311156109b55760405162461bcd60e51b81526020600482015260146024820152734465762066656520697320746f6f20686967682160601b604482015260640161085d565b8260076040516109d9906d646576656c6f706d656e7442757960901b8152600e0190565b908152604051908190036020019020556006811115610a355760405162461bcd60e51b81526020600482015260186024820152774661726d696e672066656520697320746f6f20686967682160401b604482015260640161085d565b806007604051610a56906a636f72657465616d42757960a81b8152600b0190565b9081526040805160209281900383018120939093558483529082018690528101849052606081018290527f8a81774a2772066edae066e736af1293637afb03e97d38ed55b893df513f2ac1906080015b60405180910390a150505050565b6000546001600160a01b03163314610ade5760405162461bcd60e51b815260040161085d90612866565b600084118015610aee5750600082115b8015610afa5750600083115b8015610b065750600081115b610b225760405162461bcd60e51b815260040161085d90612823565b600e6020527fe710864318d4a32f37d6ce54cb3fadbef648dd12d8dbdf53973564d56b7f881c939093557fe710864318d4a32f37d6ce54cb3fadbef648dd12d8dbdf53973564d56b7f881d9190915560016000527fa7c5ba7114a813b50159add3a36832908dc83db71d0b9a24c2ad0f83be95820755600080516020612a6083398151915255565b600033610bb885828561182c565b610bc38585856118a6565b506001949350505050565b6000546001600160a01b03163314610bf85760405162461bcd60e51b815260040161085d90612866565b600b80546001600160a01b0319166001600160a01b0392909216919091179055565b600033610827818585610c2d8383611478565b610c37919061289b565b611708565b6000546001600160a01b03163314610c665760405162461bcd60e51b815260040161085d90612866565b600a80546001600160a01b0319166001600160a01b0392909216919091179055565b6000546001600160a01b03163314610cb25760405162461bcd60e51b815260040161085d90612866565b600c80546001600160a01b0319166001600160a01b0392909216919091179055565b6000806000806007604051610cfd906d19185bdb99985c9b5a5b94d95b1b60921b8152600e0190565b908152604051908190036020018120546c1b585c9ad95d1a5b99d4d95b1b609a1b825290600790600d01908152604051908190036020018120546e19195d995b1bdc1b595b9d14d95b1b608a1b825290600790600f01908152604051908190036020018120546b18dbdc995d19585b54d95b1b60a21b825290600790600c0161076a565b6000546001600160a01b03163314610dab5760405162461bcd60e51b815260040161085d90612866565b6006841115610dfc5760405162461bcd60e51b815260206004820152601a60248201527f4d61726b6574696e672066656520697320746f6f206869676821000000000000604482015260640161085d565b836007604051610e1f906c1b585c9ad95d1a5b99d4d95b1b609a1b8152600d0190565b908152604051908190036020019020556006821115610e805760405162461bcd60e51b815260206004820152601a60248201527f4c69717569646974792066656520697320746f6f206869676821000000000000604482015260640161085d565b816007604051610ea4906d19185bdb99985c9b5a5b94d95b1b60921b8152600e0190565b908152604051908190036020019020556006811115610f005760405162461bcd60e51b81526020600482015260186024820152774661726d696e672066656520697320746f6f20686967682160401b604482015260640161085d565b806007604051610f22906b18dbdc995d19585b54d95b1b60a21b8152600c0190565b908152604051908190036020019020556006831115610f7a5760405162461bcd60e51b81526020600482015260146024820152734465762066656520697320746f6f20686967682160601b604482015260640161085d565b826007604051610f9f906e19195d995b1bdc1b595b9d14d95b1b608a1b8152600f0190565b9081526040805160209281900383018120939093558483529082018690528101849052606081018290527fb1d1ed71667d20b9c16bab3402580e66570badb4bb1158be86e78446548422d290608001610aa6565b6000546001600160a01b0316331461101d5760405162461bcd60e51b815260040161085d90612866565b6110276000612315565b565b6000546001600160a01b031633146110535760405162461bcd60e51b815260040161085d90612866565b600d80546001600160a01b0319166001600160a01b0392909216919091179055565b6000546001600160a01b0316331461109f5760405162461bcd60e51b815260040161085d90612866565b6001600160a01b03919091166000908152600960205260409020805460ff1916911515919091179055565b606060038054610796906129f9565b6000546001600160a01b031633146111035760405162461bcd60e51b815260040161085d90612866565b6001546111119060c86116f5565b8310156111955760405162461bcd60e51b815260206004820152604660248201527f446563656e747261576f726c643a20627579207472616e73616374696f6e732060448201527f6d7573742062652061626f766520302e3525206f662074686520746f74616c20606482015265737570706c7960d01b608482015260a40161085d565b6001546111a4906101f46116f5565b8210156112295760405162461bcd60e51b815260206004820152604760248201527f446563656e747261576f726c643a2073656c6c207472616e73616374696f6e7360448201527f206d7573742062652061626f766520302e3225206f662074686520746f74616c60648201526620737570706c7960c81b608482015260a40161085d565b6146508111156112965760405162461bcd60e51b815260206004820152603260248201527f446563656e747261576f726c643a20436f6f6c646f776e206d757374206265206044820152713632b9b9903a3430b7101a903437bab9399760711b606482015260840161085d565b601092909255601155601255565b600033816112b28286611478565b9050838110156113125760405162461bcd60e51b815260206004820152602560248201527f45524332303a2064656372656173656420616c6c6f77616e63652062656c6f77604482015264207a65726f60d81b606482015260840161085d565b610bc38286868403611708565b6000546001600160a01b031633146113495760405162461bcd60e51b815260040161085d90612866565b6001600160a01b03919091166000908152600860205260409020805460ff1916911515919091179055565b6000336108278185856118a6565b6000546001600160a01b031633146113ac5760405162461bcd60e51b815260040161085d90612866565b6000841180156113bc5750600082115b80156113c85750600083115b80156113d45750600081115b6113f05760405162461bcd60e51b815260040161085d90612823565b600f6020527ff4803e074bd026baaf6ed2e288c9515f68c72fb7216eebdd7cae1718a53ec375939093557ff4803e074bd026baaf6ed2e288c9515f68c72fb7216eebdd7cae1718a53ec3769190915560016000527f169f97de0d9a84d840042b17d3c6b9638b3d6fd9024c9eb0c7a306a17b49f88f55600080516020612aa083398151915255565b6001600160a01b03918216600090815260066020908152604080832093909416825291909152205490565b6017546040805163d21220a760e01b815290516000926001600160a01b0316918391839163d21220a7916004808301926020929190829003018186803b1580156114ec57600080fd5b505afa158015611500573d6000803e3d6000fd5b505050506040513d601f19601f8201168201806040525081019061152491906125ee565b9050600080836001600160a01b0316630902f1ac6040518163ffffffff1660e01b815260040160606040518083038186803b15801561156257600080fd5b505afa158015611576573d6000803e3d6000fd5b505050506040513d601f19601f8201168201806040525081019061159a91906126e4565b506001600160701b031691506001600160701b031691506000836001600160a01b031663313ce5676040518163ffffffff1660e01b815260040160206040518083038186803b1580156115ec57600080fd5b505afa158015611600573d6000803e3d6000fd5b505050506040513d601f19601f8201168201806040525081019061162491906127ab565b61162f90600a612918565b61163990846129c3565b905061164f826116498984612365565b906116f5565b979650505050505050565b6000546001600160a01b031633146116845760405162461bcd60e51b815260040161085d90612866565b6001600160a01b0381166116e95760405162461bcd60e51b815260206004820152602660248201527f4f776e61626c653a206e6577206f776e657220697320746865207a65726f206160448201526564647265737360d01b606482015260840161085d565b6116f281612315565b50565b600061170182846128b3565b9392505050565b6001600160a01b03831661176a5760405162461bcd60e51b8152602060048201526024808201527f45524332303a20617070726f76652066726f6d20746865207a65726f206164646044820152637265737360e01b606482015260840161085d565b6001600160a01b0382166117cb5760405162461bcd60e51b815260206004820152602260248201527f45524332303a20617070726f766520746f20746865207a65726f206164647265604482015261737360f01b606482015260840161085d565b6001600160a01b0383811660008181526006602090815260408083209487168084529482529182902085905590518481527f8c5be1e5ebec7d5bd14f71427d1e84f3dd0314c0f7b2291e5b200ac8c7c3b925910160405180910390a3505050565b60006118388484611478565b905060001981146118a057818110156118935760405162461bcd60e51b815260206004820152601d60248201527f45524332303a20696e73756666696369656e7420616c6c6f77616e6365000000604482015260640161085d565b6118a08484848403611708565b50505050565b6001600160a01b03831661190a5760405162461bcd60e51b815260206004820152602560248201527f45524332303a207472616e736665722066726f6d20746865207a65726f206164604482015264647265737360d81b606482015260840161085d565b6001600160a01b03821661196c5760405162461bcd60e51b815260206004820152602360248201527f45524332303a207472616e7366657220746f20746865207a65726f206164647260448201526265737360e81b606482015260840161085d565b6001600160a01b038316600090815260056020526040902054818110156119e45760405162461bcd60e51b815260206004820152602660248201527f45524332303a207472616e7366657220616d6f756e7420657863656564732062604482015265616c616e636560d01b606482015260840161085d565b601754600090819081908190819081906001906001600160a01b038c811691161415611bac57611a148a8a612371565b611a2060008b8b612410565b6040516b6d61726b6574696e6742757960a01b8152600790600c01908152604051908190036020018120546d646576656c6f706d656e7442757960901b82529750600790600e01908152604051908190036020018120546c64616f6e6661726d696e42757960981b82529650600790600d01908152604051908190036020018120546a636f72657465616d42757960a81b82529550600790600b01908152604051602091819003820190205460008052600f9091527ff4803e074bd026baaf6ed2e288c9515f68c72fb7216eebdd7cae1718a53ec376549094508910801590611b2157506001600052600f602052600080516020612aa08339815191525489105b15611b585760008052600f6020527ff4803e074bd026baaf6ed2e288c9515f68c72fb7216eebdd7cae1718a53ec375549250611d63565b6001600052600f602052600080516020612aa0833981519152548910611ba7576001600052600f6020527f169f97de0d9a84d840042b17d3c6b9638b3d6fd9024c9eb0c7a306a17b49f88f5492505b611d63565b6017546001600160a01b038b811691161415611d6357611bcc8b8a61250e565b611bd860018c8b612410565b6040516c1b585c9ad95d1a5b99d4d95b1b609a1b8152600790600d01908152604051908190036020018120546e19195d995b1bdc1b595b9d14d95b1b608a1b82529750600790600f01908152604051908190036020018120546d19185bdb99985c9b5a5b94d95b1b60921b82529650600790600e01908152604051908190036020018120546b18dbdc995d19585b54d95b1b60a21b82529550600790600c01908152604051602091819003820190205460008052600e9091527fe710864318d4a32f37d6ce54cb3fadbef648dd12d8dbdf53973564d56b7f881d549094508810801590611cdd57506001600052600e602052600080516020612a608339815191525488105b15611d145760008052600e6020527fe710864318d4a32f37d6ce54cb3fadbef648dd12d8dbdf53973564d56b7f881c549150611d63565b6001600052600e602052600080516020612a60833981519152548810611d63576001600052600e6020527fa7c5ba7114a813b50159add3a36832908dc83db71d0b9a24c2ad0f83be9582075491505b6001600160a01b03808c1660009081526005602090815260408083208d8d039055928d16825260089052205460ff1680611db557506001600160a01b038b1660009081526008602052604090205460ff165b15611dbe575060005b808015611dd857506017546001600160a01b038b81169116145b1561204557611e086040518060800160405280600081526020016000815260200160008152602001600081525090565b611e2c612710611649611e1c8660646129e2565b611e268e8b612365565b90612365565b6020820152611e4f612710611649611e458660646129e2565b611e268e8d612365565b8152611e6f612710611649611e658660646129e2565b611e268e8c612365565b6040820152611e92612710611649611e888660646129e2565b611e268e8a612365565b6060820152602080820151600a546001600160a01b03166000908152600590925260408220805491929091611ec890849061289b565b9091555050600a546020828101516040519081526001600160a01b03928316928f1691600080516020612a80833981519152910160405180910390a38051600a546001600160a01b031660009081526005602052604081208054909190611f3090849061289b565b9091555050600a5481516040519081526001600160a01b03918216918e1690600080516020612a808339815191529060200160405180910390a3604080820151600a546001600160a01b031660009081526005602052918220805491929091611f9a90849061289b565b9091555050600a5460408281015190519081526001600160a01b03918216918e1690600080516020612a808339815191529060200160405180910390a36060810151600a546001600160a01b03166000908152600560205260408120805490919061200690849061289b565b9091555050600a5460608201516040519081526001600160a01b03918216918e1690600080516020612a808339815191529060200160405180910390a3505b80801561205f57506017546001600160a01b038c81169116145b1561229e5761208f6040518060800160405280600081526020016000815260200160008152602001600081525090565b6120a3612710611649611e1c8760646129e2565b60208201526120bc612710611649611e458760646129e2565b81526120d2612710611649611e658760646129e2565b60408201526120eb612710611649611e888760646129e2565b6060820152602080820151600a546001600160a01b0316600090815260059092526040822080549192909161212190849061289b565b9091555050600a546020828101516040519081526001600160a01b03928316928f1691600080516020612a80833981519152910160405180910390a38051600a546001600160a01b03166000908152600560205260408120805490919061218990849061289b565b9091555050600a5481516040519081526001600160a01b03918216918e1690600080516020612a808339815191529060200160405180910390a3604080820151600a546001600160a01b0316600090815260056020529182208054919290916121f390849061289b565b9091555050600a5460408281015190519081526001600160a01b03918216918e1690600080516020612a808339815191529060200160405180910390a36060810151600a546001600160a01b03166000908152600560205260408120805490919061225f90849061289b565b9091555050600a5460608201516040519081526001600160a01b03918216918e1690600080516020612a808339815191529060200160405180910390a3505b6001600160a01b038a16600090815260056020526040812080548b92906122c690849061289b565b92505081905550896001600160a01b03168b6001600160a01b0316600080516020612a808339815191528b60405161230091815260200190565b60405180910390a35050505050505050505050565b600080546001600160a01b038381166001600160a01b0319831681178455604051919092169283917f8be0079c531659141344cd1fd0a4f28419497f9722a3daafe3b4186f6b6457e09190a35050565b600061170182846129c3565b6001600160a01b03821660009081526009602052604090205460ff161515600114806123c057506010546001600160a01b0383166000908152601360205260409020546123be90836125a9565b105b61240c5760405162461bcd60e51b815260206004820152601e60248201527f427579207472616e73616374696f6e206c696d69742072656163686564210000604482015260640161085d565b5050565b6012546001600160a01b038316600090815260156020526040902054429161243891906125a9565b10156124875782612464576001600160a01b038216600090815260136020526040902081905580612481565b6001600160a01b0382166000908152601460205260409020819055805b506124f0565b826124bf576001600160a01b038216600090815260136020526040812080548392906124b490849061289b565b9250508190556124ee565b6001600160a01b038216600090815260146020526040812080548392906124e790849061289b565b9250508190555b505b506001600160a01b0316600090815260156020526040902042905550565b6001600160a01b03821660009081526009602052604090205460ff1615156001148061255d57506011546001600160a01b03831660009081526014602052604090205461255b90836125a9565b105b61240c5760405162461bcd60e51b815260206004820152601f60248201527f53656c6c207472616e73616374696f6e206c696d697420726561636865642100604482015260640161085d565b6000611701828461289b565b80516001600160701b03811681146125cc57600080fd5b919050565b6000602082840312156125e357600080fd5b813561170181612a4a565b60006020828403121561260057600080fd5b815161170181612a4a565b6000806040838503121561261e57600080fd5b823561262981612a4a565b9150602083013561263981612a4a565b809150509250929050565b60008060006060848603121561265957600080fd5b833561266481612a4a565b9250602084013561267481612a4a565b929592945050506040919091013590565b6000806040838503121561269857600080fd5b82356126a381612a4a565b91506020830135801515811461263957600080fd5b600080604083850312156126cb57600080fd5b82356126d681612a4a565b946020939093013593505050565b6000806000606084860312156126f957600080fd5b612702846125b5565b9250612710602085016125b5565b9150604084015163ffffffff8116811461272957600080fd5b809150509250925092565b60006020828403121561274657600080fd5b5035919050565b60008060006060848603121561276257600080fd5b505081359360208301359350604090920135919050565b6000806000806080858703121561278f57600080fd5b5050823594602084013594506040840135936060013592509050565b6000602082840312156127bd57600080fd5b815160ff8116811461170157600080fd5b600060208083528351808285015260005b818110156127fb578581018301518582016040015282016127df565b8181111561280d576000604083870101525b50601f01601f1916929092016040019392505050565b60208082526023908201527f56616c756573206861766520746f20626520626967676572207468616e207a65604082015262726f2160e81b606082015260800190565b6020808252818101527f4f776e61626c653a2063616c6c6572206973206e6f7420746865206f776e6572604082015260600190565b600082198211156128ae576128ae612a34565b500190565b6000826128d057634e487b7160e01b600052601260045260246000fd5b500490565b600181815b808511156129105781600019048211156128f6576128f6612a34565b8085161561290357918102915b93841c93908002906128da565b509250929050565b600061170160ff8416836000826129315750600161082d565b8161293e5750600061082d565b8160018114612954576002811461295e5761297a565b600191505061082d565b60ff84111561296f5761296f612a34565b50506001821b61082d565b5060208310610133831016604e8410600b841016171561299d575081810a61082d565b6129a783836128d5565b80600019048211156129bb576129bb612a34565b029392505050565b60008160001904831182151516156129dd576129dd612a34565b500290565b6000828210156129f4576129f4612a34565b500390565b600181811c90821680612a0d57607f821691505b60208210811415612a2e57634e487b7160e01b600052602260045260246000fd5b50919050565b634e487b7160e01b600052601160045260246000fd5b6001600160a01b03811681146116f257600080fdfea7c5ba7114a813b50159add3a36832908dc83db71d0b9a24c2ad0f83be958208ddf252ad1be2c89b69c2b068fc378daa952ba7f163c4a11628f55a4df523b3ef169f97de0d9a84d840042b17d3c6b9638b3d6fd9024c9eb0c7a306a17b49f890a2646970667358221220ff5483360b02cba102a08e7f3c782db5bac0e59ca882d495589dd97133b69a6764736f6c63430008070033",
  "immutableReferences": {},
  "source": "/*\n* \n* $DEWO Token - The Native Token To DecentraWorld's Ecosystem\n* DecentraWorld - Increasing Privacy Standards In DeFi\n* Built With Zero-Knowledge Privacy Protocols \n*\n* Documentation: http://docs.decentraworld.co/\n* GitHub: https://github.com/decentraworldDEWO\n* Main Website: https://DecentraWorld.co/\n* DAO: https://dao.decentraworld.co/\n* Governance: https://gov.decentraworld.co/\n* DecentraMix: https://decentramix.io/\n*\n*\n*\n*\n*\n*\n*\n*\n*\n*\n*\n*\n*\n*\n*\n*\n*\n*/\n// SPDX-License-Identifier: MIT\n\npragma solidity ^0.8.7;\npragma experimental ABIEncoderV2;\n\nimport \"@OpenZeppelin/contracts/utils/math/SafeMath.sol\";\nimport \"@OpenZeppelin/contracts/access/Ownable.sol\";\nimport \"@OpenZeppelin/contracts/utils/Context.sol\"; \n \n\n/**\n * @dev Interfaces \n */\n\ninterface IDEXFactory {\n    event PairCreated(address indexed token0, address indexed token1, address pair, uint);\n\n    function feeTo() external view returns (address);\n    function feeToSetter() external view returns (address);\n\n    function getPair(address tokenA, address tokenB) external view returns (address pair);\n    function allPairs(uint) external view returns (address pair);\n    function allPairsLength() external view returns (uint);\n\n    function createPair(address tokenA, address tokenB) external returns (address pair);\n\n    function setFeeTo(address) external;\n    function setFeeToSetter(address) external;\n}\n\ninterface IDEXRouter {\n    function factory() external pure returns (address);\n    function WETH() external pure returns (address);\n\n    function addLiquidity(\n        address tokenA,\n        address tokenB,\n        uint amountADesired,\n        uint amountBDesired,\n        uint amountAMin,\n        uint amountBMin,\n        address to,\n        uint deadline\n    ) external returns (uint amountA, uint amountB, uint liquidity);\n\n    function addLiquidityETH(\n        address token,\n        uint amountTokenDesired,\n        uint amountTokenMin,\n        uint amountETHMin,\n        address to,\n        uint deadline\n    ) external payable returns (uint amountToken, uint amountETH, uint liquidity);\n\n    function swapExactTokensForTokensSupportingFeeOnTransferTokens(\n        uint amountIn,\n        uint amountOutMin,\n        address[] calldata path,\n        address to,\n        uint deadline\n    ) external;\n\n    function swapExactTokensForETHSupportingFeeOnTransferTokens(\n        uint amountIn,\n        uint amountOutMin,\n        address[] calldata path,\n        address to,\n        uint deadline\n    ) external;\n}\n\ninterface IPancakeswapV2Pair {\n    event Approval(address indexed owner, address indexed spender, uint value);\n    event Transfer(address indexed from, address indexed to, uint value);\n\n    function name() external pure returns (string memory);\n    function symbol() external pure returns (string memory);\n    function decimals() external pure returns (uint8);\n    function totalSupply() external view returns (uint);\n    function balanceOf(address owner) external view returns (uint);\n    function allowance(address owner, address spender) external view returns (uint);\n\n    function approve(address spender, uint value) external returns (bool);\n    function transfer(address to, uint value) external returns (bool);\n    function transferFrom(address from, address to, uint value) external returns (bool);\n\n    function DOMAIN_SEPARATOR() external view returns (bytes32);\n    function PERMIT_TYPEHASH() external pure returns (bytes32);\n    function nonces(address owner) external view returns (uint);\n\n    function permit(address owner, address spender, uint value, uint deadline, uint8 v, bytes32 r, bytes32 s) external;\n\n    event Mint(address indexed sender, uint amount0, uint amount1);\n    event Burn(address indexed sender, uint amount0, uint amount1, address indexed to);\n    event Swap(\n        address indexed sender,\n        uint amount0In,\n        uint amount1In,\n        uint amount0Out,\n        uint amount1Out,\n        address indexed to\n    );\n    event Sync(uint112 reserve0, uint112 reserve1);\n\n    function MINIMUM_LIQUIDITY() external pure returns (uint);\n    function factory() external view returns (address);\n    function token0() external view returns (address);\n    function token1() external view returns (address);\n    function getReserves() external view returns (uint112 reserve0, uint112 reserve1, uint32 blockTimestampLast);\n    function price0CumulativeLast() external view returns (uint);\n    function price1CumulativeLast() external view returns (uint);\n    function kLast() external view returns (uint);\n\n    function mint(address to) external returns (uint liquidity);\n    function burn(address to) external returns (uint amount0, uint amount1);\n    function swap(uint amount0Out, uint amount1Out, address to, bytes calldata data) external;\n    function skim(address to) external;\n    function sync() external;\n\n    function initialize(address, address) external;\n}\n\n/**\n * @dev Interface of the ERC20 standard as defined in the EIP.\n */\ninterface IERC20 {\n    function totalSupply() external view returns (uint256);\n    function balanceOf(address account) external view returns (uint256);\n    function transfer(address to, uint256 amount) external returns (bool);\n    function allowance(address owner, address spender) external view returns (uint256);\n    function approve(address spender, uint256 amount) external returns (bool);\n\n    /**\n     * @dev Returns the decimals places of the token.\n     */\n    function decimals() external view returns (uint8);\n\n    /**\n     * @dev Moves `amount` tokens from `from` to `to` using the\n     * allowance mechanism. `amount` is then deducted from the caller's\n     * allowance.\n     *\n     * Returns a boolean value indicating whether the operation succeeded.\n     *\n     * Emits a {Transfer} event.\n     */\n    function transferFrom(\n        address from,\n        address to,\n        uint256 amount\n    ) external returns (bool);\n\n    /**\n     * @dev Emitted when `value` tokens are moved from one account (`from`) to\n     * another (`to`).\n     *\n     * Note that `value` may be zero.\n     */\n    event Transfer(address indexed from, address indexed to, uint256 value);\n\n    /**\n     * @dev Emitted when the allowance of a `spender` for an `owner` is set by\n     * a call to {approve}. `value` is the new allowance.\n     */\n    event Approval(address indexed owner, address indexed spender, uint256 value);\n}\n\n/**\n * @dev Interface for the optional metadata functions from the ERC20 standard.\n *\n * _Available since v4.1._\n */\ninterface IERC20Metadata is IERC20 {\n    /**\n     * @dev Returns the name of the token.\n     */\n    function name() external view returns (string memory);\n\n    /**\n     * @dev Returns the symbol of the token.\n     */\n    function symbol() external view returns (string memory);\n}\n\n\ncontract DecentraWorld is Context, IERC20, IERC20Metadata, Ownable {\n    using SafeMath for uint256;\n    // DecentraWorld - $DEWO\n    uint256 _totalSupply;\n    string private _name;\n    string private _symbol;\n    uint8 private _decimals;\n    // Mapping\n    mapping(address => uint256) private _balances;\n    mapping(address => mapping(address => uint256)) private _allowances;\n    mapping (string => uint) taxFees;\n    mapping (address => bool) public excludeFromFees;\n    mapping (address => bool) public excludeFromMaxTx;\n    address public daoandfarmingAddress;\n    address public marketingAddress;\n    address public developmentAddress;\n    address public coreteamAddress;\n\n    struct DEWOTransactionFee {\n        uint forMarketing;\n        uint forDAOnFarming;\n        uint forDevelopment;\n        uint forCoreTeam;\n    }\n\n    struct MaxTx {\n        uint buyLimit;\n        uint sellLimit;\n        uint cooldown;\n        mapping(address => uint) buys;\n        mapping(address => uint) sells;\n        mapping(address => uint) lastTx;\n    }\n\n    // Discounted Buy Tax For Holding x $DEWO\n    struct BuyTaxTiers {\n        uint buyTaxDiscount;\n        uint amount;\n    }\n    // Discounted Sell Tax For Holding x $DEWO\n    struct SellTaxTiers {\n        uint sellTaxDiscount;\n        uint amount;\n    }\n    mapping (uint => SellTaxTiers) selltaxTiers;\n    mapping (uint => BuyTaxTiers) buytaxTiers;\n    MaxTx maxTx;\n\n    IDEXRouter public router;\n    address public pair;\n\n    constructor() {\n        _name = \"DecentraWorld\";\n        _symbol = \"$DEWO\";\n        _decimals = 18;\n        _totalSupply = 100000000 * (10 ** decimals());\n        daoandfarmingAddress = msg.sender;\n        marketingAddress = msg.sender;\n        developmentAddress = msg.sender;\n        coreteamAddress = msg.sender;\n        // Exclude from MaxTx & Fees by default\n        excludeFromFees[msg.sender] = true;\n        excludeFromMaxTx[msg.sender] = true;\n        excludeFromFees[daoandfarmingAddress] = true;\n        excludeFromMaxTx[daoandfarmingAddress] = true;\n        excludeFromFees[marketingAddress] = true;\n        excludeFromMaxTx[marketingAddress] = true;\n        excludeFromFees[developmentAddress] = true;\n        excludeFromMaxTx[developmentAddress] = true;\n        excludeFromFees[coreteamAddress] = true;\n        excludeFromMaxTx[coreteamAddress] = true;\n        // Transaction fees apply solely on swaps (buys/sells)\n        // Tier 1 - Default Buy Fee [6% Total]\n        // Tier 2 - Buy Fee [3% Total]\n        // Tier 3 - Buy Fee [0% Total]\n        //\n        // Automatically set the default transactions fees\n        // [Tier 1: 6% Buy Fee]\n        taxFees[\"daonfarminBuy\"] = 3;  // [3%] DAO, Governance, Farming Pools\n        taxFees[\"marketingBuy\"] = 1;   // [1%] Marketing Fee\n        taxFees[\"developmentBuy\"] = 1; // [1%] Development Fee\n        taxFees[\"coreteamBuy\"] = 1;    // [1%] DecentraWorld's Core-Team\n        // [Tier 1: 10% Sell Fee]\n        taxFees[\"daonfarminSell\"] = 4; // 4% DAO, Governance, Farming Pools \n        taxFees[\"marketingSell\"] = 3;  // 3% Marketing Fee\n        taxFees[\"developmentSell\"] = 1; // 1% Development Fee\n        taxFees[\"coreteamSell\"] = 2; // 2% DecentraWorld's Core-Team\n        // Buy/Sell Limits\n        maxTx.cooldown = 30 minutes;\n        maxTx.buyLimit = _totalSupply.div(80); // 1,25%\n        maxTx.sellLimit = _totalSupply.div(800); // 0.25%\n        \n        // Set all discount tiers to 0/(maxsupply) until $DEWO gets a value\n        // Once $DEWO has a LP the 'setDefaultBuySellTaxTiers' function will be executed\n        /*\n           $DEWO holders can adjust these fees via the DAO dashboard\n           Transaction Fees - 3 tiers:\n           Buy/Sell: 6%/10% ($0+ balance)\n           Supporter: 3%/8%  ($5K+ balance)\n           Whales: 0%/6%  ($20K+ balance) \n\n           Tax Re-distribution Buys (6%/3%/0%):\n           DAO Fund/Farming:      3% | 1% | 0%\n           Marketing Budget:      1% | 1% | 0% \n           Development Fund:      1% | 0% | 0%\n           Core-Team:             1% | 1% | 0% \n\n           Tax Re-distribution Sells (10%/8%/6%):\n           DAO Fund/Farming:        4% | 3% | 3%\n           Marketing Budget:        3% | 2% | 1% \n           Development Fund:        1% | 1% | 1%\n           Core-Team:               2% | 2% | 1% \n           The community can disable the holder rewards fee and migrate that \n           fee to the rewards/staking pool. This can be done via the Governance portal.\n        */\n        buytaxTiers[0].buyTaxDiscount = 50;\n        buytaxTiers[0].amount = 250000 * (10 ** decimals());  //purchase more than 0.15% at a time for this discount ot apply (tax 3%)\n        buytaxTiers[1].buyTaxDiscount = 100;\n        buytaxTiers[1].amount = 300000 * (10 ** decimals());   //purchase more than 0.3% at a time for this discount ot apply (tax 0%)\n       \n        selltaxTiers[0].sellTaxDiscount = 20;\n        selltaxTiers[0].amount = 250000 * (10 ** decimals()); //hold more than 0.15% at a time for this discount ot apply (8% sell tax)\n        selltaxTiers[1].sellTaxDiscount = 40;\n        selltaxTiers[1].amount = 300000 * (10 ** decimals()); //hold more than 0.3% at a time for this discount ot apply (6% sell tax)\n \n\n        // Create a PancakeSwap (DEX) Pair For $DEWO\n        address WBNB = 0x094616F0BdFB0b526bD735Bf66Eca0Ad254ca81F; // Wrapped BNB on Binance Smart Chain\n        // Testnet WBNB = 0x094616F0BdFB0b526bD735Bf66Eca0Ad254ca81F\n        // BSC mainnet WBNB = 0xbb4CdB9CBd36B01bD1cBaEBF2De08d9173bc095c\n        address _router = 0xD99D1c33F9fC3444f8101754aBC46c52416550D1; // PancakeSwap Router (ChainID: 56 = BSC)\n        // Testnet Router: 0xD99D1c33F9fC3444f8101754aBC46c52416550D1\n        // Mainnet BSC Router: 0x10ED43C718714eb63d5aA57B78B54704E256024E\n        router = IDEXRouter(_router);\n        pair = IDEXFactory(router.factory()).createPair(WBNB, address(this));\n        _allowances[address(this)][address(router)] = _totalSupply;\n        approve(_router, _totalSupply);\n        _balances[msg.sender] = _totalSupply;\n        emit Transfer(address(0), msg.sender, _totalSupply);\n    }\n\n\n\n\n\n    function setdaoandfarmingAddress(address _daoandfarmingAddress) external onlyOwner {\n        daoandfarmingAddress = _daoandfarmingAddress;\n    }\n\n    function setmarketingAddress(address _marketingAddress) external onlyOwner {\n        marketingAddress = _marketingAddress;\n    }\n\n    function setdevelopmentAddress(address _developmentAddress) external onlyOwner {\n        developmentAddress = _developmentAddress;\n    }\n\n    function setcoreteamAddress(address _coreteamAddress) external onlyOwner {\n        coreteamAddress = _coreteamAddress;\n    }\n    \n    function setexcludeFromFees(address _address, bool _value) external onlyOwner {\n        excludeFromFees[_address] = _value;\n    }\n\n    function setexcludeFromMaxTx(address _address, bool _value) external onlyOwner {\n        excludeFromMaxTx[_address] = _value;\n    }\n\n    // $DEWO Price In BNB\n    function getDEWOPriceInBNB(uint _amount) public view returns(uint) {\n        IPancakeswapV2Pair pcsPair = IPancakeswapV2Pair(pair);\n        IERC20 token1 = IERC20(pcsPair.token1());\n        (uint Res0, uint Res1,) = pcsPair.getReserves();\n        uint res0 = Res0*(10**token1.decimals());\n        return((_amount.mul(res0)).div(Res1)); \n    }\n \n    // Set Buy Fees\n    event BuyFees(\n        uint _marketingBuy,\n        uint _developmentBuy,\n        uint _daonfarmingBuy,\n        uint _coreteamBuy\n    );\n    function setBuyFees(\n        uint _marketingBuy,\n        uint _developmentBuy,\n        uint _daonfarmingBuy,\n        uint _coreteamBuy\n    ) external onlyOwner {\n        require(_marketingBuy <= 6, \"Marketing fee is too high!\");\n        taxFees[\"marketingBuy\"] = _marketingBuy;\n        require(_daonfarmingBuy <= 6, \"Liquidity fee is too high!\");\n        taxFees[\"daonfarminBuy\"] = _daonfarmingBuy;\n        require(_developmentBuy <= 6, \"Dev fee is too high!\");\n        taxFees[\"developmentBuy\"] = _developmentBuy;\n        require(_coreteamBuy <= 6, \"Farming fee is too high!\");\n        taxFees[\"coreteamBuy\"] = _coreteamBuy;\n        emit BuyFees(\n            _daonfarmingBuy,\n            _marketingBuy,\n            _developmentBuy, \n            _coreteamBuy\n        );\n    }\n    \n    // Set Sell Fees\n    event SellFees(\n        uint _marketingSell,\n        uint _developmentSell,\n        uint _daonfarmingSell,\n        uint _coreteamSell\n    );\n    function setSellFees(\n        uint _marketingSell,\n        uint _developmentSell,\n        uint _daonfarmingSell,\n        uint _coreteamSell\n    ) external onlyOwner {\n        require(_marketingSell <= 6, \"Marketing fee is too high!\");\n        taxFees[\"marketingSell\"] = _marketingSell;\n        require(_daonfarmingSell <= 6, \"Liquidity fee is too high!\");\n        taxFees[\"daonfarminSell\"] = _daonfarmingSell;\n        require(_coreteamSell <= 6, \"Farming fee is too high!\");\n        taxFees[\"coreteamSell\"] = _coreteamSell;\n        require(_developmentSell <= 6, \"Dev fee is too high!\");\n        taxFees[\"developmentSell\"] = _developmentSell;\n        emit SellFees(\n            _daonfarmingSell,\n            _marketingSell,\n            _developmentSell,\n            _coreteamSell\n        );\n    }\n\n    function getBuyFees() public view returns(\n        uint marketingBuy,\n        uint developmentBuy,\n        uint daonfarminBuy,\n        uint coreteamBuy\n    ) {\n        return (\n            taxFees[\"daonfarminBuy\"],\n            taxFees[\"marketingBuy\"],\n            taxFees[\"developmentBuy\"],\n            taxFees[\"coreteamBuy\"]\n        );\n    }\n\n        function getSellFees() public view returns(\n        uint marketingSell,\n        uint developmentSell,\n        uint daonfarminSell,\n        uint coreteamSell\n    ) {\n        return (\n            taxFees[\"daonfarminSell\"],\n            taxFees[\"marketingSell\"],\n            taxFees[\"developmentSell\"],\n            taxFees[\"coreteamSell\"]\n        );\n    }\n \n \n    // Set Buy Tax Discounted Tiers For Tier 2 & 3 Wallet - in DEWO tokens \n    function setBuyTaxTiersTokens(uint _discount1, uint _amount1, uint _discount2, uint _amount2) external onlyOwner {\n        require(_discount1 > 0 && _discount2 > 0 && _amount1 > 0 && _amount2 > 0, \"Values have to be bigger than zero!\");\n        buytaxTiers[0].buyTaxDiscount = _discount1; //default: 50\n        buytaxTiers[0].amount = _amount1;  //default: 5,000 BUSD worth of $DEWO\n        buytaxTiers[1].buyTaxDiscount = _discount2; //default: 100\n        buytaxTiers[1].amount = _amount2;  //default: 20,000 BUSD worth of $DEWO\n    }\n\n    // Set Sell Tax Discounted Tiers For Tier 2 & 3 Wallet - in DEWO tokens \n    function setSellTaxTiersTokens(uint _discount1, uint _amount1, uint _discount2, uint _amount2) external onlyOwner {\n        require(_discount1 > 0 && _discount2 > 0 && _amount1 > 0 && _amount2 > 0, \"Values have to be bigger than zero!\");\n        selltaxTiers[0].sellTaxDiscount = _discount1; //default: 20\n        selltaxTiers[0].amount = _amount1;  //default: 5,000 BUSD worth of $DEWO\n        selltaxTiers[1].sellTaxDiscount = _discount2; //default: 40\n        selltaxTiers[1].amount = _amount2;  //default: 20,000 BUSD worth of $DEWO\n    }\n\n\n    // Return The Difference Back To The Transaction\n    function getbuytaxTiers() public view returns(uint discount1, uint amount1, uint discount2, uint amount2) {\n        return (buytaxTiers[0].buyTaxDiscount, buytaxTiers[0].amount, buytaxTiers[1].buyTaxDiscount, buytaxTiers[1].amount);\n    }\n\n     // Return The Difference Back To The Transaction\n    function getselltaxTiers() public view returns(uint discount1, uint amount1, uint discount2, uint amount2) {\n        return (selltaxTiers[0].sellTaxDiscount, selltaxTiers[0].amount, selltaxTiers[1].sellTaxDiscount, selltaxTiers[1].amount);\n    }\n\n    // Set Max Transaction But Limit / Sell Limit  Cooldown\n    function setmaxTx(uint _buyLimit, uint _sellLimit, uint _cooldown) external onlyOwner {\n        require(_buyLimit >= _totalSupply.div(200), \"DecentraWorld: buy transactions must be above 0.5% of the total supply\"); // 0.5%\n        require(_sellLimit >= _totalSupply.div(500), \"DecentraWorld: sell transactions must be above 0.2% of the total supply\"); // 0.2%\n        require(_cooldown <= 300 minutes, \"DecentraWorld: Cooldown must be less than 5 hours.\");\n        maxTx.buyLimit = _buyLimit;\n        maxTx.sellLimit = _sellLimit;\n        maxTx.cooldown = _cooldown;\n    }\n\n    function getmaxTx() public view returns(uint buyLimit, uint sellLimit, uint cooldown) {\n        return (maxTx.buyLimit, maxTx.sellLimit, maxTx.cooldown);\n    }\n\n    // Check Buy MaxTx Amount\n    function checkBuyMaxTx(address _sender, uint256 _amount) internal view {\n        require(\n            excludeFromMaxTx[_sender] == true ||\n            maxTx.buys[_sender].add(_amount) < maxTx.buyLimit,\n            \"Buy transaction limit reached!\"\n        );\n    }\n\n    // Check Sell MaxTx Amount\n    function checkSellMaxTx(address _sender, uint256 _amount) internal view {\n        require(\n            excludeFromMaxTx[_sender] == true ||\n            maxTx.sells[_sender].add(_amount) < maxTx.sellLimit,\n            \"Sell transaction limit reached!\"\n        );\n    }\n    \n    // Save Recent Transaction Buy/Sell While Cooldown Is Active\n    function setRecentTx(bool _isSell, address _sender, uint _amount) internal {\n        if(maxTx.lastTx[_sender].add(maxTx.cooldown) < block.timestamp) {\n            _isSell ? maxTx.sells[_sender] = _amount : maxTx.buys[_sender] = _amount;\n        } else {\n            _isSell ? maxTx.sells[_sender] += _amount : maxTx.buys[_sender] += _amount;\n        }\n\n        maxTx.lastTx[_sender] = block.timestamp;\n    }\n\n    function getRecentTx(address _address) public view returns(uint buys, uint sells, uint lastTx) {\n        return (maxTx.buys[_address], maxTx.sells[_address], maxTx.lastTx[_address]);\n    }\n\n\n    /**\n     * @dev Returns the name of the token.\n     */\n    function name() public view virtual override returns (string memory) {\n        return _name;\n    }\n\n    /**\n     * @dev Returns the symbol of the token, usually a shorter version of the\n     * name.\n     */\n    function symbol() public view virtual override returns (string memory) {\n        return _symbol;\n    }\n\n    function decimals() public view virtual override returns (uint8) {\n        return _decimals;\n    }\n    \n    function totalSupply() public view virtual override returns (uint256) {\n        return _totalSupply;\n    }\n\n    function balanceOf(address account) public view virtual override returns (uint256) {\n        return _balances[account];\n    }\n\n    /**\n     * @dev See {IERC20-transfer}.\n     *\n     * Requirements:\n     *\n     * - `to` cannot be the zero address.\n     * - the caller must have a balance of at least `amount`.\n     */\n    function transfer(address to, uint256 amount) public virtual override returns (bool) {\n        address owner = _msgSender();\n        _transfer(owner, to, amount);\n        return true;\n    }\n\n    /**\n     * @dev See {IERC20-allowance}.\n     */\n    function allowance(address owner, address spender) public view virtual override returns (uint256) {\n        return _allowances[owner][spender];\n    }\n\n    /**\n     * @dev See {IERC20-approve}.\n     *\n     * NOTE: If `amount` is the maximum `uint256`, the allowance is not updated on\n     * `transferFrom`. This is semantically equivalent to an infinite approval.\n     *\n     * Requirements:\n     *\n     * - `spender` cannot be the zero address.\n     */\n    function approve(address spender, uint256 amount) public virtual override returns (bool) {\n        address owner = _msgSender();\n        _approve(owner, spender, amount);\n        return true;\n    }\n\n    /**\n     * @dev See {IERC20-transferFrom}.\n     *\n     * Emits an {Approval} event indicating the updated allowance. This is not\n     * required by the EIP. See the note at the beginning of {ERC20}.\n     *\n     * NOTE: Does not update the allowance if the current allowance\n     * is the maximum `uint256`.\n     *\n     * Requirements:\n     *\n     * - `from` and `to` cannot be the zero address.\n     * - `from` must have a balance of at least `amount`.\n     * - the caller must have allowance for ``from``'s tokens of at least\n     * `amount`.\n     */\n    function transferFrom(\n        address from,\n        address to,\n        uint256 amount\n    ) public virtual override returns (bool) {\n        address spender = _msgSender();\n        _spendAllowance(from, spender, amount);\n        _transfer(from, to, amount);\n        return true;\n    }\n\n    /**\n     * @dev Atomically increases the allowance granted to `spender` by the caller.\n     *\n     * This is an alternative to {approve} that can be used as a mitigation for\n     * problems described in {IERC20-approve}.\n     *\n     * Emits an {Approval} event indicating the updated allowance.\n     *\n     * Requirements:\n     *\n     * - `spender` cannot be the zero address.\n     */\n    function increaseAllowance(address spender, uint256 addedValue) public virtual returns (bool) {\n        address owner = _msgSender();\n        _approve(owner, spender, allowance(owner, spender) + addedValue);\n        return true;\n    }\n\n    /**\n     * @dev Atomically decreases the allowance granted to `spender` by the caller.\n     *\n     * This is an alternative to {approve} that can be used as a mitigation for\n     * problems described in {IERC20-approve}.\n     *\n     * Emits an {Approval} event indicating the updated allowance.\n     *\n     * Requirements:\n     *\n     * - `spender` cannot be the zero address.\n     * - `spender` must have allowance for the caller of at least\n     * `subtractedValue`.\n     */\n    function decreaseAllowance(address spender, uint256 subtractedValue) public virtual returns (bool) {\n        address owner = _msgSender();\n        uint256 currentAllowance = allowance(owner, spender);\n        require(currentAllowance >= subtractedValue, \"ERC20: decreased allowance below zero\");\n        unchecked {\n            _approve(owner, spender, currentAllowance - subtractedValue);\n        }\n\n        return true;\n    }\n\n    /**\n     * @dev Moves `amount` of tokens from `sender` to `recipient`.\n     *\n     * This internal function is equivalent to {transfer}, and can be used to\n     * e.g. implement automatic token fees, slashing mechanisms, etc.\n     *\n     * Emits a {Transfer} event.\n     *\n     * Requirements:\n     *\n     * - `from` cannot be the zero address.\n     * - `to` cannot be the zero address.\n     * - `from` must have a balance of at least `amount`.\n     */\n    function _transfer(\n        address from,\n        address to,\n        uint256 amount\n    ) internal virtual {\n        require(from != address(0), \"ERC20: transfer from the zero address\");\n        require(to != address(0), \"ERC20: transfer to the zero address\");\n\n        uint256 fromBalance = _balances[from];\n        require(fromBalance >= amount, \"ERC20: transfer amount exceeds balance\");\n\n        uint marketingFee;\n        uint developmentFee;\n        uint daonfarmingFee;\n        uint coreteamFee;\n        uint buyTaxDiscount;\n        uint sellTaxDiscount;\n        bool hasFees = true;\n\n        // BUY\n        if(from == pair) {\n            checkBuyMaxTx(to, amount);  \n\n            setRecentTx(false, to, amount);\n\n            marketingFee = taxFees[\"marketingBuy\"];\n            developmentFee = taxFees[\"developmentBuy\"];\n            daonfarmingFee = taxFees[\"daonfarminBuy\"];\n            coreteamFee = taxFees[\"coreteamBuy\"];\n\n            // Buy Tax Discounts For Tier 2 & 3 Holders\n            if(amount >= buytaxTiers[0].amount && amount < buytaxTiers[1].amount) {\n                buyTaxDiscount = buytaxTiers[0].buyTaxDiscount;\n            } else if(amount >= buytaxTiers[1].amount) {\n                buyTaxDiscount = buytaxTiers[1].buyTaxDiscount;\n            }\n        }\n        // SELL\n        else if(to == pair) {\n            checkSellMaxTx(from, amount);\n            setRecentTx(true, from, amount);\n\n            marketingFee = taxFees[\"marketingSell\"];\n            developmentFee = taxFees[\"developmentSell\"];\n            daonfarmingFee = taxFees[\"daonfarminSell\"];\n            coreteamFee = taxFees[\"coreteamSell\"];\n\n            // Sell Tax Discounts For Tier 2 & 3 Holders\n            if(fromBalance >= selltaxTiers[0].amount && fromBalance < selltaxTiers[1].amount) {\n                sellTaxDiscount = selltaxTiers[0].sellTaxDiscount;\n            } else if(fromBalance >= selltaxTiers[1].amount) {\n                sellTaxDiscount = selltaxTiers[1].sellTaxDiscount;\n            }\n        }\n\n        unchecked {\n            _balances[from] = fromBalance - amount;\n        }\n\n        if(excludeFromFees[to] || excludeFromFees[from]) {\n            hasFees = false;\n        }\n\n        if(hasFees && (to == pair)) {\n            DEWOTransactionFee memory DEWOTransactionFees;\n            DEWOTransactionFees.forDAOnFarming = amount.mul(daonfarmingFee).mul(100 - sellTaxDiscount).div(10000);\n            DEWOTransactionFees.forMarketing = amount.mul(marketingFee).mul(100 - sellTaxDiscount).div(10000);\n            DEWOTransactionFees.forDevelopment = amount.mul(developmentFee).mul(100 - sellTaxDiscount).div(10000);\n            DEWOTransactionFees.forCoreTeam = amount.mul(coreteamFee).mul(100 - sellTaxDiscount).div(10000);\n\n            _balances[daoandfarmingAddress] += DEWOTransactionFees.forDAOnFarming; // DAO Fund / Governance / Farming Pools\n            emit Transfer(from, daoandfarmingAddress, DEWOTransactionFees.forDAOnFarming);\n\n            _balances[daoandfarmingAddress] += DEWOTransactionFees.forMarketing; // Marketing Fund\n            emit Transfer(from, daoandfarmingAddress, DEWOTransactionFees.forMarketing);\n\n            _balances[daoandfarmingAddress] += DEWOTransactionFees.forDevelopment; // Development Fund\n            emit Transfer(from, daoandfarmingAddress, DEWOTransactionFees.forDevelopment);\n\n            _balances[daoandfarmingAddress] += DEWOTransactionFees.forCoreTeam; // Core-Team\n            emit Transfer(from, daoandfarmingAddress, DEWOTransactionFees.forCoreTeam);\n        }\n\n                if(hasFees && (from == pair)) {\n            DEWOTransactionFee memory DEWOTransactionFees;\n            DEWOTransactionFees.forDAOnFarming = amount.mul(daonfarmingFee).mul(100 - buyTaxDiscount).div(10000);\n            DEWOTransactionFees.forMarketing = amount.mul(marketingFee).mul(100 - buyTaxDiscount).div(10000);\n            DEWOTransactionFees.forDevelopment = amount.mul(developmentFee).mul(100 - buyTaxDiscount).div(10000);\n            DEWOTransactionFees.forCoreTeam = amount.mul(coreteamFee).mul(100 - buyTaxDiscount).div(10000);\n\n            _balances[daoandfarmingAddress] += DEWOTransactionFees.forDAOnFarming; // DAO Fund / Governance / Farming Pools\n            emit Transfer(from, daoandfarmingAddress, DEWOTransactionFees.forDAOnFarming);\n\n            _balances[daoandfarmingAddress] += DEWOTransactionFees.forMarketing; // Marketing Fund\n            emit Transfer(from, daoandfarmingAddress, DEWOTransactionFees.forMarketing);\n\n            _balances[daoandfarmingAddress] += DEWOTransactionFees.forDevelopment; // Development Fund\n            emit Transfer(from, daoandfarmingAddress, DEWOTransactionFees.forDevelopment);\n\n            _balances[daoandfarmingAddress] += DEWOTransactionFees.forCoreTeam; // Core-Team\n            emit Transfer(from, daoandfarmingAddress, DEWOTransactionFees.forCoreTeam);\n        }\n        _balances[to] += amount;\n        emit Transfer(from, to, amount);\n    }\n\n    /**\n     * @dev Sets `amount` as the allowance of `spender` over the `owner` s tokens.\n     *\n     * This internal function is equivalent to `approve`, and can be used to\n     * e.g. set automatic allowances for certain subsystems, etc.\n     *\n     * Emits an {Approval} event.\n     *\n     * Requirements:\n     *\n     * - `owner` cannot be the zero address.\n     * - `spender` cannot be the zero address.\n     */\n    function _approve(\n        address owner,\n        address spender,\n        uint256 amount\n    ) internal virtual {\n        require(owner != address(0), \"ERC20: approve from the zero address\");\n        require(spender != address(0), \"ERC20: approve to the zero address\");\n\n        _allowances[owner][spender] = amount;\n        emit Approval(owner, spender, amount);\n    }\n\n    /**\n     * @dev Updates `owner` s allowance for `spender` based on spent `amount`.\n     *\n     * Does not update the allowance amount in case of infinite allowance.\n     * Revert if not enough allowance is available.\n     *\n     * Might emit an {Approval} event.\n     */\n    function _spendAllowance(\n        address owner,\n        address spender,\n        uint256 amount\n    ) internal virtual {\n        uint256 currentAllowance = allowance(owner, spender);\n        if (currentAllowance != type(uint256).max) {\n            require(currentAllowance >= amount, \"ERC20: insufficient allowance\");\n            unchecked {\n                _approve(owner, spender, currentAllowance - amount);\n            }\n        }\n    }\n}",
  "sourcePath": "/Users/a/Desktop/contract/BlockBlend/TESTNET/contracts/DecentraWorld_Testnet.sol",
  "compiler": {
    "name": "solc",
    "version": "0.8.7+commit.e28d00a7.Emscripten.clang"
  },
  "schemaVersion": "3.4.7",
  "updatedAt": "2022-04-18T05:24:08.943Z",
  "networkType": "ethereum",
  "devdoc": {
    "kind": "dev",
    "methods": {
      "allowance(address,address)": {
        "details": "See {IERC20-allowance}."
      },
      "approve(address,uint256)": {
        "details": "See {IERC20-approve}. NOTE: If `amount` is the maximum `uint256`, the allowance is not updated on `transferFrom`. This is semantically equivalent to an infinite approval. Requirements: - `spender` cannot be the zero address."
      },
      "decimals()": {
        "details": "Returns the decimals places of the token."
      },
      "decreaseAllowance(address,uint256)": {
        "details": "Atomically decreases the allowance granted to `spender` by the caller. This is an alternative to {approve} that can be used as a mitigation for problems described in {IERC20-approve}. Emits an {Approval} event indicating the updated allowance. Requirements: - `spender` cannot be the zero address. - `spender` must have allowance for the caller of at least `subtractedValue`."
      },
      "increaseAllowance(address,uint256)": {
        "details": "Atomically increases the allowance granted to `spender` by the caller. This is an alternative to {approve} that can be used as a mitigation for problems described in {IERC20-approve}. Emits an {Approval} event indicating the updated allowance. Requirements: - `spender` cannot be the zero address."
      },
      "name()": {
        "details": "Returns the name of the token."
      },
      "owner()": {
        "details": "Returns the address of the current owner."
      },
      "renounceOwnership()": {
        "details": "Leaves the contract without owner. It will not be possible to call `onlyOwner` functions anymore. Can only be called by the current owner. NOTE: Renouncing ownership will leave the contract without an owner, thereby removing any functionality that is only available to the owner."
      },
      "symbol()": {
        "details": "Returns the symbol of the token, usually a shorter version of the name."
      },
      "transfer(address,uint256)": {
        "details": "See {IERC20-transfer}. Requirements: - `to` cannot be the zero address. - the caller must have a balance of at least `amount`."
      },
      "transferFrom(address,address,uint256)": {
        "details": "See {IERC20-transferFrom}. Emits an {Approval} event indicating the updated allowance. This is not required by the EIP. See the note at the beginning of {ERC20}. NOTE: Does not update the allowance if the current allowance is the maximum `uint256`. Requirements: - `from` and `to` cannot be the zero address. - `from` must have a balance of at least `amount`. - the caller must have allowance for ``from``'s tokens of at least `amount`."
      },
      "transferOwnership(address)": {
        "details": "Transfers ownership of the contract to a new account (`newOwner`). Can only be called by the current owner."
      }
    },
    "version": 1
  },
  "userdoc": {
    "kind": "user",
    "methods": {},
    "version": 1
  }
}